:06000000020016020034AC
:0F0013000200BDC288D2A8C28AD2AAD2AF7F0093
:100022007E007D0075900075A00002002F12010273
:0F00320080FBE580540FF89403400E600C94039C
:0E004100402660249403403E603CFA20B75AEB
:10004F0030B753B2B7CA10D707CA6FFF1200C43206
:0E005F00CA0A232323CA70F860EFFA20B744C0
:10006D0030B73DB2B7CA10D707CA6EFE1200C43200
:0E007D00CA0A232323CA70F860EFFA20B72EB8
:10008B0030B727B2B7CA10D707CA6DFD1200C432FA
:10009B00CA0A232323CA70F860EF740380A9740182
:1000AB0080A5740380BF740180BB740380D5740179
:1000BB0080D17F007E007D00320200C7EF44240414
:0F00CB006025EE442404601FED4424046019EF07
:0F00DA0044B6046016EE44B6046010ED44B6045C
:1000E900600A0200EE0200F1220C012FCC23232327
:1000F900230423232323CC012F7590008FA0D290B2
:0F010900109000D291109100D2921092008EA00F
:0F011800D293109300D294109400D295109500BA
:0A0127008DA0D296109600D2972208
:00000001FF
