:06000000020016020034AC
:0F0013000200BDC288D2A8C28AD2AAD2AF7F0093
:100022007E007D0075900075A00002002F12011B5A
:0F00320080FBE580540FF89403400E600C94039C
:0E004100402660249403403E603CFA20B75AEB
:10004F0030B753B2B7CA10D707CA6FFF1200C43206
:0E005F00CA0A232323CA70F860EFFA20B744C0
:10006D0030B73DB2B7CA10D707CA6EFE1200C43200
:0E007D00CA0A232323CA70F860EFFA20B72EB8
:10008B0030B727B2B7CA10D707CA6DFD1200C432FA
:10009B00CA0A232323CA70F860EF740380A9740182
:1000AB0080A5740380BF740180BB740380D5740179
:1000BB0080D17F007E007D00320200C7EF44240414
:0F00CB00603EEE4424046038ED4424046032EFBC
:0F00DA0064B604602FEE64B6046029ED64B604CA
:1000E90060230200EEEF0200F24F54C04E54184D47
:0F00F9005403442404600B74494F4E4D44B60425
:100108006004220C012FCC2323232304232323233D
:0F011800CC012F7590008FA0D290109000D29143
:0F012700109100D2921092008EA0D293109300EC
:0E013600D294109400D2951095008DA0D29610
:06014400109600D2972284
:00000001FF
