:0200000080136B
:02000300802C4F
:1000130001BDC288D2A8C28AD2AAD2AF7F007E0015
:100023007D0075900075A000800031E980FCE580BB
:0F003300540FF89403400E600C9403402760258F
:1000420094034040603EFA20B75D30B756B2B7CA5B
:10005200C2D610D706CA6FFF11CE32CA0A23232393
:0F006200CA70F860F0FA20B74630B73FB2B7CA9D
:10007100C2D610D706CA6EFE11CE32CA0A23232376
:0F008100CA70F860F0FA20B72F30B728B2B7CAAC
:10009000C2D610D706CA6DFD11CE32CA0A23232359
:0F00A000CA70F860F0740380A6740180A2740324
:1000AF0080BD740180B9740380D4740180D07F0047
:0F00BF007E007D007C007B007A007900780032A3
:0F00CE008000EF4424046020EE442404601AED07
:0F00DD004424046014EF64B6046010EE64B604AB
:1000EC00600AED64B6046004800E0C22CC2323233A
:1000FC00230423232323CC22EF75F00054C02323A5
:0F010C00C5F0EE54C045F0232375F000C5F0EDAB
:10011B0054C045F0F5F064180460D0C5F064BA041F
:10012B0075F00060C8EF75F00054182323C5F0EE8E
:10013B00541845F0232375F000C5F0ED541845F025
:0F014B00F5F064060460A4C5F064570475F00075
:0F015A00609CEF75F00054032323C5F0EE5403AF
:1001690045F0232375F000C5F0ED540345F0F5F093
:0F01790064C004600CC5F064EA0475F000600413
:10018800800E0C22CC232323230423232323CC22D5
:10019800EF75F0005403C5F0EE541845F075F00003
:1001A800C5F0ED54C045F0F5F064240460D4C5F002
:1001B80064B60475F00060CCEF75F00054C0C5F06B
:0F01C800EE541845F075F000C5F0ED540345F006
:0F01D700F5F064240460ACC5F064B60475F00064
:0F01E60060A4227590008FA0D290109000D2914B
:0F01F500109100D2921092008EA0D2931093001E
:0E020400D294109400D2951095008DA0D29641
:06021200109600D29722B5
:00000001FF
